S01F0000323031393134363033375F5465616D50726F6A656374312E7372656316
S113000045C0000030C300005FC000005DC00000B8
S11300105BC0000059C0000057C0000055C000007C
S113002053C00000B9C300004FC000004DC0000021
S11300304BC0000049C0000047C0000045C000009C
S113004043C0000041C000003FC000003DC00000AC
S11300503BC0000039C0000037C0000035C00000BC
S113006033C0000031C000002FC000002DC00000CC
S11300702BC0000029C0000027C0000025C00000DC
S113008023C0000021C000001FC0000011241FBEB7
S1130090CFEFD0E1DEBFCDBF11E0A0E0B1E0E6EBF1
S11300A0F1E100E00BBF02C007900D92AA3CB1073A
S11300B0D9F721E0AAECB1E001C01D92A33DB2073B
S11300C0E1F7FFD30C94D9089BCF8FEF8ABB8FE065
S11300D0809364000895E5E6F0E090819B7F90832F
S11300E090819D7F908390819160908396EF9A9503
S11300F0F1F78BBB86EF8A95F1F780818E7F808341
S11301000895E5E6F0E090819460908390819D7F6E
S1130110908390819160908396EF9A95F1F78BBBD1
S113012086EF8A95F1F780818E7F80830895E9DFD9
S113013086E69EE00197F1F700000895CF93DF93E0
S1130140EC0102C0F4DF219688818111FBCFDF919D
S1130150CF91089570E09B0140E4849F200D311DF0
S11301601124C9018068B7CF089581E090E0B3DF1E
S11301708CEC9CE10197F1F700C00000089580E346
S113018090E0A9DF8AE09BE30197F1F780E390E038
S1130190A2DF80E791E00197F1F700C080E390E0EF
S11301A09ADF80E791E00197F1F700C088E390E0DF
S11301B092DF86E69EE00197F1F700008CE090E084
S11301C08ADF86E69EE00197F1F7000081E090E087
S11301D082DF8CEC9CE10197F1F700C0000086E01F
S11301E090E079DF86E69EE00197F1F7000008953C
S11301F020E030E005C045E04A95F1F72F5F3F4F1E
S113020028173907C0F30895CF92DF92EF92FF9237
S11302100F931F93CF93DF938C0188EA91E6B80183
S113022054D77B01C12CD12C0FC0C5E6D0E0888106
S113023080618883C801DCDF88818F7E8883C80160
S1130240D7DF8FEFC81AD80ACE14DF0474F3E5E6BB
S1130250F0E0808180618083DF91CF911F910F91C5
S1130260FF90EF90DF90CF900895CF92DF92EF92BE
S1130270FF920F931F93CF93DF936C019C01990F0F
S1130280440B550B60E573EC80E090E031D77901C5
S113029000E010E00EC0C5E6D0E08881806188836C
S11302A0C601A6DF88818F7E8883C601A1DF0F5F28
S11302B01F4F0E151F057CF3E5E6F0E08081806199
S11302C08083DF91CF911F910F91FF90EF90DF908A
S11302D0CF900895CF92DF92EF92FF920F931F93E6
S11302E0CF93DF936C019C01990F440B550B60E98C
S11302F070ED83E090E0FCD6790100E010E00EC0E0
S1130300C5E6D0E0888180618883C60171DF888179
S11303108F7E8883C6016CDF0F5F1F4F0E151F058C
S11303207CF3E5E6F0E0808180618083DF91CF910A
S11303301F910F91FF90EF90DF90CF90089581303F
S1130340910569F484E797E05FDF2FEF8FE796E18B
S1130350215080409040E1F700C0000008958230B1
S1130360910569F484EA96E04FDF2FEF8FE796E179
S1130370215080409040E1F700C000000895833090
S1130380910569F48BEE95E03FDF2FEF8FE796E15F
S1130390215080409040E1F700C00000089584306F
S11303A0910569F487EF92E02FDF2FEF8FE796E155
S11303B0215080409040E1F700C00000089585304E
S11303C0910569F488E995E01FDF2FEF8FE796E147
S11303D0215080409040E1F700C00000089586302D
S11303E0910569F48BEF94E00FDF2FEF8FE796E12F
S11303F0215080409040E1F700C00000089587300C
S1130400910569F480E794E0FFDE2FEF8FE796E132
S1130410215080409040E1F700C0000008958830EA
S1130420910569F487EF92E0EFDE2FEF8FE796E115
S1130430215080409040E1F700C0000008958930C9
S1130440910569F484EF93E0DFDE2FEF8FE796E107
S1130450215080409040E1F700C0000008958A30A8
S1130460910569F48CEB93E0CFDE2FEF8FE796E1F3
S1130470215080409040E1F700C0000008958B3087
S1130480910569F484E593E0BFDE2FEF8FE796E1F1
S1130490215080409040E1F700C0000008958C3066
S11304A0910569F487EF92E0AFDE2FEF8FE796E1D5
S11304B0215080409040E1F700C0000008958D3045
S11304C0910569F487EF92E09FDE2FEF8FE796E1C5
S11304D0215080409040E1F700C0000008958E3024
S11304E0910569F487EF92E08FDE2FEF8FE796E1B5
S11304F0215080409040E1F700C0000008958F3003
S1130500910569F487EF92E07FDE2FEF8FE796E1A4
S1130510215080409040E1F700C0000008954097CA
S113052061F487EF92E070DE2FEF8FE796E12150C0
S113053080409040E1F700C000000895E4E6F0E058
S1130540808180618083E5E6F0E080818061808342
S113055080EF82B99FEF97BB84BB08950F931F93DD
S1130560CF93DF938C01E0E0F1E0808183B9C8018F
S113057068EE73E0AAD5CB01CAE0D0E0BE01A5D5F0
S1130580DC01A85FBE4F8C9188BB86E69EE0019794
S1130590F1F700002FEF28BB828183B9C80164E61C
S11305A070E093D5CB01BE0190D5DC01A85FBE4FAE
S11305B08C9188BB86E69EE00197F1F7000028BB8A
S11305C0848183B9C801BE0180D58C01CB01BE01F1
S11305D07CD5DC01A85FBE4F8C9188BB86E69EE08B
S11305E00197F1F7000028BB868183B9F801E85F21
S11305F0FE4F808188BB86E69EE00197F1F70000FC
S113060028BB13B8DF91CF911F910F910895CF9319
S1130610DF93CDB7DEB760970FB6F894DEBF0FBE99
S1130620CDBF90E1E8E1F1E0DE01119601900D9279
S11306309A95E1F7813160F4E82FF0E0319781E099
S113064090E08C0F9D1FE80FF91F808190E002C09D
S11306508FEF9FEF60960FB6F894DEBF0FBECDBF4D
S1130660DF91CF9108951F920F920FB60F9211242C
S11306700BB60F922F933F934F935F936F937F9398
S11306808F939F93AF93BF93EF93FF93CF93DF9396
S1130690CDB7DEB7A697DEBFCDBF8DE0E6E4F1E0CF
S11306A0DE01119601900D928A95E1F78FE0E3E562
S11306B0F1E0DE011E9601900D928A95E1F78AE041
S11306C0E2E6F1E0DE015D9601900D928A95E1F794
S11306D08091CE01811113C048DD61E080E03ADDF4
S11306E0CE0101962BDD61E081E034DDCE010E9672
S11306F025DD8091CE018F5F8093CE012AC035DD48
S113070084E797E081DD2FEF8FE796E12150804069
S11307109040E1F700C0000084EA96E075DD2FEF19
S11307208FE796E1215080409040E1F700C000003F
S11307308BEE95E069DD61E080E00CDDCE01019691
S1130740FDDC61E081E006DDCE014D96F7DC109220
S1130750CE01A6960FB6F894DEBF0FBECDBFDF91D3
S1130760CF91FF91EF91BF91AF919F918F917F9125
S11307706F915F914F913F912F910F900BBE0F900E
S11307800FBE0F901F90189581E089BF82E080937F
S11307906A0011BA789408951F920F920FB60F92BF
S11307A011240BB60F922F933F938F939F93EF9344
S11307B0FF938091D1019091D2018C599F4F9093D6
S11307C0D2018093D1018091CA019091CB018C59BF
S11307D09F4F9093CB018093CA012091CC0130911B
S11307E0CD012817390730F0E2E6F0E08081886017
S11307F0808305C0E2E6F0E08081877F80832091DA
S1130800D1013091D2018091CF019091D00128176C
S1130810390741F41092D2011092D1011092CB0108
S11308201092CA01FF91EF919F918F913F912F9167
S11308300F900BBE0F900FBE0F901F90189587B7A7
S1130840806887BF8AE085BD88EB83BD0895F7DFA4
S11308508FB780688FBF089548EC489F9001499FE7
S1130860300D1124AFE8B3EE5FD4929582958F706A
S113087089279F7089278C509E4F9093CD01809338
S1130880CC010895E1E6F0E08081886080830895DA
S1130890CF93DF93C4EAD6E003C0CE01B5DC2B9737
S11308A0CE3782E0D807CCF7CEE7D2E003C0CE0142
S11308B0ABDC6596C53A86E0D807CCF3DF91CF91DF
S11308C00895CF93DF93CDB7DEB7C257D1090FB6E2
S11308D0F894DEBF0FBECDBF89E0E0EAF1E0DE01AF
S11308E0119601900D928A95E1F78FE0E1E9F1E02C
S11308F0DE011A9601900D928A95E1F78AE0E9EA01
S1130900F1E0DE01599601900D928A95E1F78DE0B0
S1130910E3EBF1E0DE01939601900D928A95E1F705
S11309208DE0ECE6F1E0DE01D09601900D928A951F
S1130930E1F789E0E0ECF1E0DE01DD9601900D9253
S11309408A95E1F78FE0E8E2F1E0DE01AA5BBF4FB0
S113095001900D928A95E1F78FE0E7E3F1E0DE0183
S1130960AB5ABF4F01900D928A95E1F78FE0E7E310
S1130970F1E0DE01AC59BF4F01900D928A95E1F789
S11309801092CE01A2DBFBDBD9DDFEDE7BDF5FDF75
S11309908BEF94E06ADC812C912CA12CB12C01E02A
S11309A010E0C12CD12CE12CF12C612C01C0672C5E
S11309B0C114D10411F0C701D1DD77247A9441E048
S11309C045C085B3806F85BB55B3242F30E0B90192
S11309D06D5F7F4F81E090E002C0880F991F6A9598
S11309E0E2F78095852385BB8FEF9FE80197F1F7A8
S11309F000C0000083B38F70823089F018F4813016
S1130A0031F023C08430A1F08830E1F01EC02150C1
S1130A103109220F220F77247394720E16C02150CD
S1130A203109220F220F6894772471F8720E0DC0D9
S1130A3021503109220F220F0F2EF3E07F2EF02DCB
S1130A40720E03C0742E770C770C4F5F453008F498
S1130A50B8CF872D90E02091CE01213009F01CC140
S1130A608130910591F4602F81E074DB81E35FDBD9
S1130A70F801319784E690E08C0F9D1FE80FF91F71
S1130A8081E080830F5F1F4FC8C08230910591F4CD
S1130A90602F81E05FDB82E34ADBF801319784E673
S1130AA090E08C0F9D1FE80FF91F82E080830F5F99
S1130AB01F4FB3C08330910591F4602F81E04ADB6E
S1130AC083E335DBF801319784E690E08C0F9D1FBA
S1130AD0E80FF91F83E080830F5F1F4F9EC08430AF
S1130AE0910509F49AC08530910591F4602F81E055
S1130AF031DB84E31CDBF801319784E690E08C0F52
S1130B009D1FE80FF91F84E080830F5F1F4F85C08E
S1130B108630910591F4602F81E01CDB85E307DBCF
S1130B20F801319784E690E08C0F9D1FE80FF91FC0
S1130B3085E080830F5F1F4F70C08730910591F46B
S1130B40602F81E007DB86E3F2DAF801319784E66F
S1130B5090E08C0F9D1FE80FF91F86E080830F5FE4
S1130B601F4F5BC08830910509F457C08930910547
S1130B7091F4602F81E0EEDA87E3D9DAF801319756
S1130B8084E690E08C0F9D1FE80FF91F87E08083B7
S1130B900F5F1F4F42C08A30910591F4602F81E0AE
S1130BA0D9DA88E3C4DAF801319784E690E08C0F4F
S1130BB09D1FE80FF91F88E080830F5F1F4F2DC032
S1130BC08B30910591F4602F81E0C4DA89E3AFDAC8
S1130BD0F801319784E690E08C0F9D1FE80FF91F10
S1130BE089E080830F5F1F4F18C08C309105A9F0F6
S1130BF08D30910591F00E9781F4602F81E0AADA8F
S1130C0080E395DAF801319784E690E08C0F9D1F1C
S1130C10E80FF91F10820F5F1F4F80E090E017C0AC
S1130C20E4E6F0E0EC0FFD1FE80FF91F2081E6E495
S1130C30F0E0EC0FFD1FE80FF91F2083E5E5F0E07D
S1130C40EC0FFD1FE80FF91F2AE02083019698019D
S1130C50215031098217930718F318C0E6E4F0E035
S1130C60EC0FFD1FE20FF31F8AE08083E4E6F0E05F
S1130C70EC0FFD1FE20FF31F8083E5E5F0E0EC0FBE
S1130C80FD1FE20FF31F80832F5F3F4F2F3031058D
S1130C902CF3812C912CFBC181309105A1F4602FA0
S1130CA081E058DA81E343DAF801319785E590E091
S1130CB08C0F9D1FE80FF91F81E080830F5F1F4F8A
S1130CC0812C912CA3C182309105A1F4602F81E085
S1130CD041DA82E32CDAF801319785E590E08C0F54
S1130CE09D1FE80FF91F82E080830F5F1F4F812C47
S1130CF0912C8CC183309105A1F4602F81E02ADA14
S1130D0083E315DAF801319785E590E08C0F9D1F98
S1130D10E80FF91F83E080830F5F1F4F812C912C14
S1130D2075C18430910509F471C185309105A1F430
S1130D30602F81E00FDA84E3FAD9F801319785E571
S1130D4090E08C0F9D1FE80FF91F84E080830F5FF4
S1130D501F4F812C912C5AC186309105A1F4602F2C
S1130D6081E0F8D985E3E3D9F801319785E590E08E
S1130D708C0F9D1FE80FF91F85E080830F5F1F4FC5
S1130D80812C912C43C187309105A1F4602F81E01F
S1130D90E1D986E3CCD9F801319785E590E08C0F51
S1130DA09D1FE80FF91F86E080830F5F1F4F812C82
S1130DB0912C2CC18830910509F428C18930910502
S1130DC0A1F4602F81E0C6D987E3B1D9F801319746
S1130DD085E590E08C0F9D1FE80FF91F87E0808365
S1130DE00F5F1F4F812C912C11C18A309105A1F402
S1130DF0602F81E0AFD988E39AD9F801319785E56E
S1130E0090E08C0F9D1FE80FF91F88E080830F5F2F
S1130E101F4F812C912CFAC08B309105A1F4602FC7
S1130E2081E098D989E383D9F801319785E590E089
S1130E308C0F9D1FE80FF91F89E080830F5F1F4F00
S1130E40812C912CE3C08C30910509F4DAC08D30EB
S1130E50910509F0A0C09FEF891A990A80E090E0FB
S1130E6020E030E013C0E5E5F0E0EC0FFD1FE80FF3
S1130E70F91F5081E6E4F0E0EC0FFD1FE80FF91FC5
S1130E804081541302C02F5F3F4F01968F3091056C
S1130E9050F32F303105A1F568D984E797E01ADAC9
S1130EA02FEF8FE796E1215080409040E1F700C09A
S1130EB000008BEE95E00EDA2FEF8FE796E12150DC
S1130EC080409040E1F700C000008BEF94E002DA2C
S1130ED02FEF8FE796E1215080409040E1F700C06A
S1130EE000008CEB93E0F6D98AE590E0B5DC61E094
S1130EF080E030D9CE01499621D9A12CB12C39C03A
S1130F0034D92FEFA21AB20A80E794E0E3D98FEF25
S1130F109FE726E1815090402040E1F700C00000A7
S1130F2080E794E0D7D98FEF9FE726E18150904086
S1130F302040E1F700C0000080E794E0CBD961E0F5
S1130F4080E008D9CE010196F9D862E081E002D9A7
S1130F50CE018396F3D88FEF9FEF26E8815090401F
S1130F602040E1F700C0000000D9C12CD12CE12CB5
S1130F70F12C80E090E009C0E5E5F0E0EC0FFD1F06
S1130F80E80FF91F2AE0208301968F309105A4F31E
S1130F9001E010E03BC08E30910599F4602F81E0B0
S1130FA0D9D880E3C4D8F801319785E590E08C0F57
S1130FB09D1FE80FF91F10820F5F1F4F812C912C8A
S1130FC025C08F309105D1F4D0D861E080E0C2D83B
S1130FD086E69EE00197F1F70000CE010196AED8B7
S1130FE061E081E0B7D8CE010A96A8D8812C912C73
S1130FF001E010E0CC24C394D12C08C0409731F414
S113100003C0812C912C02C0812C912C92E0891672
S1131010910460F18BEF94E0F7D82FEF8FE796E11E
S1131020215080409040E1F700C0000088E995E03D
S1131030EBD82FEF8FE796E1215080409040E1F705
S113104000C000008BEE95E0DFD82FEF8FE796E12C
S1131050215080409040E1F700C0000084EA96E00F
S1131060D3D880E090E0F8DB812C912C23E0A21609
S1131070B10468F00DDC61E080E06CD8CE01C0966C
S11310805DD862E081E066D8CE01CD9657D8872D31
S113109090E055D98FEF781609F489CC761409F4C9
S11310A086CCC70168EE73E010D07C01EE0CFF1C07
S11310B0880F991F880F991F880F991FE80EF91E32
S11310C0872DA5DAE80EF91E72CC97FB072E16F4CD
S11310D0009406D077FD08D036D007FC05D03EF446
S11310E0909581959F4F0895709561957F4F0895D0
S11310F0052E97FB16F400940FD057FD05D037D07A
S113110007FC02D046F408C05095409530952195CF
S11311103F4F4F4F5F4F089590958095709561951F
S11311207F4F8F4F9F4F0895A29FB001B39FC0017F
S1131130A39F700D811D1124911DB29F700D811DFF
S11311401124911D0895AA1BBB1B51E107C0AA1FBE
S1131150BB1FA617B70710F0A61BB70B881F991F54
S11311605A95A9F780959095BC01CD010895A1E207
S11311701A2EAA1BBB1BFD010DC0AA1FBB1FEE1F0D
S1131180FF1FA217B307E407F50720F0A21BB30B58
S1131190E40BF50B661F771F881F991F1A9469F7D4
S11311A060957095809590959B01AC01BD01CF0130
S10911B00895F894FFCF3E
S11311B61F002F004F008F00C0F9A4B0999282D867
S11311C680908883C4A1848E0102034104050642EB
S11311D6070809432A0023440102030405060708F5
S11311E609000A0A0A0A0A0A0A0A0A0A0A0A0A0A60
S11311F60A0A0A0A0A0A50415353574F52442053C3
S11312064554002D2D2D2D2D2D2D2D2D2D2D2D2DF2
S11312162D002D535543434553532D007761726E6C
S1131226696E672E2E2E2E2E00737465616C696EA0
S113123667212121004D4153544552204D4F4445C9
S1131246002A2A2A2A2A2A2A2A2A2A2A2A2A2A0048
S113125650415353574F524400444F4F52204F501E
S1131266454E006572726F722E2E2E2E2E2E2E0075
S10D127669662C7468656674000054
S9030000FC
